:020000021000EC
:10F000000C9490F80C94AFF80C94AFF80C94AFF803
:10F010000C94AFF80C94AFF80C94AFF80C94AFF8D4
:10F020000C94AFF80C94AFF80C94AFF80C94AFF8C4
:10F030000C94AFF80C94AFF80C94AFF80C94AFF8B4
:10F040000C94AFF80C94AFF80C94AFF80C94AFF8A4
:10F050000C94AFF80C94AFF80C94AFF80C94AFF894
:10F060000C94AFF80C94AFF80C94AFF80C94AFF884
:10F070000C94AFF80C94AFF80C94AFF80C94AFF874
:10F080000C94AFF80C94AFF80C94AFF80C94AFF864
:10F090000C94AFF80C94AFF80C94AFF80C94AFF854
:10F0A0000C94AFF80C94AFF80C94AFF80C94AFF844
:10F0B0000C94AFF80C94AFF80C94AFF80C94AFF834
:10F0C0000C94AFF80C94AFF80C94AFF80C94AFF824
:10F0D0000C94AFF80C94AFF80C94AFF80C94AFF814
:10F0E0000C94AFF80C94AFF80C94AFF80C94AFF804
:10F0F0000C94AFF80C94AFF80C94AFF80C94AFF8F4
:10F100000C94AFF80C94AFF80C94AFF80C94AFF8E3
:10F110000C94AFF80C94AFF80C94AFF80C94AFF8D3
:10F1200011241FBECFEFD1E4DEBFCDBF12E0A0E0BF
:10F13000B2E0E2E9F8EF01E00BBF02C007900D92E8
:10F14000A230B107D9F723E0A2E0B2E001C01D92DE
:10F15000AD30B207E1F70E94C0F90C9447FC0C9463
:10F1600000F890910502913019F0923041F0089525
:10F170009091C00095FFFCCF8093C60008959091B8
:10F18000C80095FFFCCF8093CE000895CF93982FB1
:10F190008595859585958595805D9F709A3044F419
:10F1A000C0E3C90F0E94B1F88C2FCF910C94B1F835
:10F1B000C7E5C90F0E94B1F88C2FCF910C94B1F81C
:10F1C000CF92DF92EF92FF9280910502813061F140
:10F1D000823031F080E0FF90EF90DF90CF90089583
:10F1E000C12CD12C76018091C80087FD16C08FEF0D
:10F1F000C81AD80AE80AF80A81E4C81682E4D806D0
:10F200008FE0E806F10478F3E0910202F091030246
:10F2100009958091C80087FFEACF8091CE00FF90CA
:10F22000EF90DF90CF900895C12CD12C7601809182
:10F23000C00087FD16C08FEFC81AD80AE80AF80A7E
:10F2400081E4C81682E4D8068FE0E806F10478F37A
:10F25000E0910202F091030209958091C00087FFBE
:10F26000EACF8091C600FF90EF90DF90CF90089595
:10F27000CF930E94E0F8C82F0E94B1F8C1364CF439
:10F28000C03324F080ED8C0FCF9108958C2FCF9157
:10F29000089589EA8C0FCF910895CF930E9438F991
:10F2A000C82F0E9438F990E1C99F800D1124CF9199
:10F2B000089520910502815060F0213059F02230EC
:10F2C000D1F79091C80097FFFCCF9091CE0081506C
:10F2D000A0F708959091C00097FFFCCF9091C600D1
:10F2E000EACFCF93C82F0E94E0F8803279F0809166
:10F2F00004028F5F80930402853011F0CF9108954E
:10F30000E0910202F0910302CF91099484E10E94FE
:10F31000B1F88C2F0E94B1F880E1CF910C94B1F834
:10F320000E94E0F8803269F0809104028F5F809340
:10F330000402853009F00895E0910202F091030281
:10F34000099484E10E94B1F880E10C94B1F815C0F1
:10F35000A09A2FEF31EE94E0215030409040E1F739
:10F3600000C00000A0982FEF31EE94E02150304013
:10F370009040E1F700C0000081508111E9CF08956D
:10F38000000081E080930502E0E0F0E0E49120E1FC
:10F390002093C4001092C5001092C00096E0909394
:10F3A000C20088E18093C10030910502323051F4EF
:10F3B0002093CC001092CD001092C8009093CA0008
:10F3C0008093C9006898709A989A9091050284E099
:10F3D000890F9B3FC1F0A09A2FEF31EE94E02150AE
:10F3E00030409040E1F700C00000A098EFEFF1EE50
:10F3F00024E0E150F0402040E1F700C00000982FE9
:10F4000081509111E8CF0E94E0F88033B1F181334F
:10F41000B9F1803409F454C0813409F45AC08234FB
:10F4200009F469C0853409F46CC0982F9D7F90352C
:10F4300021F1813511F1853509F469C0863509F46A
:10F4400071C0843609F477C0843709F4DFC085378A
:10F4500009F43AC1863709F44AC0809104028F5FEB
:10F4600080930402853079F6E0910202F091030264
:10F4700009950E94E0F8803351F60E9490F9C3CFBD
:10F480000E94E0F8803249F784E10E94B1F881E4FB
:10F490000E94B1F886E50E94B1F882E50E94B1F8B9
:10F4A00080E20E94B1F889E40E94B1F883E50E94ED
:10F4B000B1F880E50E94B1F880E10E94B1F8A3CFD5
:10F4C0000E94E0F88638C8F20E94E0F80E9490F9A5
:10F4D0009ACF0E94E0F8803809F41FC1813809F4FE
:10F4E00018C1823809F41DC1883909F402C180E0CD
:10F4F0000E9471F988CF84E10E9459F90E9490F925
:10F5000082CF85E00E9459F90E9490F97CCF0E9439
:10F51000E0F8809306020E94E0F8809307020E94C0
:10F5200090F971CF0E94E0F8803309F4E6C083E0DF
:10F530000E9459F9DCCF0E94E0F8809309030E94F1
:10F54000E0F88093080380910C038E7F80930C0376
:10F550000E94E0F8853409F4FAC080910803909184
:10F560000903892BA1F068E0E62E62E0F62E00E0A8
:10F5700010E00E94E0F8F70181937F010F5F1F4FB9
:10F5800080910803909109030817190790F30E94CE
:10F59000E0F8803209F061CF80910C03982F9170D0
:10F5A00080FFE5C08091060290910702880F991FA5
:10F5B000909307028093060220910803309109037B
:10F5C000232BE9F048E0E42E42E0F42E00E010E0C6
:10F5D000F70161917F010E9439FC809106029091B0
:10F5E0000702019690930702809306020F5F1F4F58
:10F5F00020910803309109030217130748F384E1AF
:10F600000E94B1F880E10E94B1F8FDCE0E94E0F8BE
:10F61000809309030E94E0F880930803809106021A
:10F620009091070220910C0397FD9DC02D7F2093A0
:10F630000C03880F991F90930702809306020E9483
:10F64000E0F8853409F489C080910C038E7F8093A3
:10F650000C030E94E0F8803209F0D5CE84E10E94CC
:10F66000B1F88091080390910903892B09F43DC0FA
:10F6700000E010E0809106029091070216C0FC01A4
:10F6800084910E94B1F88091060290910702019640
:10F6900090930702809306020F5F1F4F209108038B
:10F6A000309109030217130700F520910C0320FD88
:10F6B0003CC021FFE4CFA0E0B0E01196ABBFFC015D
:10F6C00087910E94B1F8DFCF0E94E0F8803209F004
:10F6D000C4CE84E10E94B1F88EE10E94B1F887EABD
:10F6E0000E94B1F881E00E94B1F880E10E94B1F877
:10F6F0008ACE83E00E9471F986CE0E94E0F80E94D3
:10F70000E0F8182F0E94E0F8112309F4A1C011308D
:10F71000D1F081E00E9471F976CE82E00E9471F909
:10F7200072CE80E10E9471F96ECE0E9431FC0E947F
:10F73000B1F880910602909107020196909307021A
:10F7400080930602A9CF87EA0E9471F95CCE80916E
:10F750000C03816080930C0300CF80910C038160C7
:10F7600080930C0376CF226020930C0362CF8091AC
:10F77000070287FD71C010920B039BBF80910602A8
:10F7800090910702880F991F9093070280930602B9
:10F790008091080380FF09C08091080390910903BC
:10F7A00001969093090380930803F894F999FECF8A
:10F7B0001127E0910602F0910702C8E0D2E08091A3
:10F7C000080390910903103091F4009157000170E3
:10F7D0000130D9F303E000935700E89500915700FA
:10F7E00001700130D9F301E100935700E8950990C9
:10F7F00019900091570001700130D9F301E0009396
:10F800005700E8951395103898F01127009157008C
:10F8100001700130D9F305E000935700E89500919D
:10F82000570001700130D9F301E100935700E895CA
:10F830003296029709F0C7CF103011F00296E5CF4B
:10F84000112484E10E94B1F880E10E94B1F8DBCD7F
:10F850008EE10E9471F9D7CD81E080930B0391E096
:10F860008CCFF999FECF92BD81BDF89A992780B5CA
:10F870000895262FF999FECF1FBA92BD81BD20BDF4
:10F880000FB6F894FA9AF99A0FBE01960895F89473
:02F89000FFCFA8
:02F892008000F4
:040000031000F000F9
:00000001FF
